{
 "cells": [
  {
   "cell_type": "markdown",
   "metadata": {},
   "source": [
    "# Transaction Fees\n",
    "\n",
    "The actual input sum - output sum is what we call the transaction fee. This amount goes to the miner and may in some cases be 0. Fees vary depending on other transactions trying to get into the blockchain. A lot of transactions trying to get into the blockchain will generally lead to higher fees and not as many will generally lead to lower fees.\n",
    "\n",
    "\n",
    "#### How much is the transaction fee of this transaction?\n",
    "```\n",
    "010000000456919960ac691763688d3d3bcea9ad6ecaf875df5339e148a1fc61c6ed7a069e010000006a47304402204585bcdef85e6b1c6af5c2669d4830ff86e42dd205c0e089bc2a821657e951c002201024a10366077f87d6bce1f7100ad8cfa8a064b39d4e8fe4ea13a7b71aa8180f012102f0da57e85eec2934a82a585ea337ce2f4998b50ae699dd79f5880e253dafafb7feffffffeb8f51f4038dc17e6313cf831d4f02281c2a468bde0fafd37f1bf882729e7fd3000000006a47304402207899531a52d59a6de200179928ca900254a36b8dff8bb75f5f5d71b1cdc26125022008b422690b8461cb52c3cc30330b23d574351872b7c361e9aae3649071c1a7160121035d5c93d9ac96881f19ba1f686f15f009ded7c62efe85a872e6a19b43c15a2937feffffff567bf40595119d1bb8a3037c356efd56170b64cbcc160fb028fa10704b45d775000000006a47304402204c7c7818424c7f7911da6cddc59655a70af1cb5eaf17c69dadbfc74ffa0b662f02207599e08bc8023693ad4e9527dc42c34210f7a7d1d1ddfc8492b654a11e7620a0012102158b46fbdff65d0172b7989aec8850aa0dae49abfb84c81ae6e5b251a58ace5cfeffffffd63a5e6c16e620f86f375925b21cabaf736c779f88fd04dcad51d26690f7f345010000006a47304402200633ea0d3314bea0d95b3cd8dadb2ef79ea8331ffe1e61f762c0f6daea0fabde022029f23b3e9c30f080446150b23852028751635dcee2be669c2a1686a4b5edf304012103ffd6f4a67e94aba353a00882e563ff2722eb4cff0ad6006e86ee20dfe7520d55feffffff0251430f00000000001976a914ab0c0b2e98b1ab6dbf67d4750b0a56244948a87988ac005a6202000000001976a9143c82d7df364eb6c75be8c80df2b3eda8db57397088ac46430600\n",
    "```\n",
    "\n",
    "Fee is simply the sum of the inputs (use the value() method) minus the outputs (use the amount property)"
   ]
  },
  {
   "cell_type": "code",
   "execution_count": 4,
   "metadata": {},
   "outputs": [
    {
     "name": "stdout",
     "output_type": "stream",
     "text": [
      "2650266\n",
      "3426834\n",
      "11000000\n",
      "795000000\n",
      "50000000\n",
      "310000000\n",
      "2000000000\n",
      "450000\n",
      "What is the bitcoin price? 6400\n",
      "\n",
      "====================\n",
      "VERSION:\n",
      "Version number: 1\n",
      "\n",
      "====================\n",
      "INPUTS:\n",
      "Number of inputs: 7\n",
      "Inputs: 9ed8b6fdcbb07db691337b350535ae9131383595cbc52b26131d69d8656d2c1f:0\n",
      "Value: 0.02650266\n",
      "Inputs: 92d5b26644ecf157dc0ff89e2182b6af1793406d7e5f46df0270f89b25452f07:39\n",
      "Value: 0.03426834\n",
      "Inputs: 8669088b20136bbf83f3cd2ec543768dbe40002ac6c67c397a5f1b79bf0ed1ef:1\n",
      "Value: 0.11\n",
      "Inputs: 4df088a8a192ecd3f1b770c703e2b9a6ebf4179c5ad5785baf0b40fe1a1acdd7:2\n",
      "Value: 7.95\n",
      "Inputs: 290aa26456340bb2511feb9d3e0fa68d41ba6352fc2bca5e61dd7a7bca88a763:0\n",
      "Value: 0.5\n",
      "Inputs: 125bfb424bb57302e22d4a57217a30d94b9c8223c9d42f0743f0b969d93e9d22:0\n",
      "Value: 3.1\n",
      "Inputs: ac07999b4a29a22e722855fed274d593d9d4cb02ebc6ab73d741b0ccc106a467:1\n",
      "Value: 20.0\n",
      "Input Total: 31.720771\n",
      "\n",
      "====================\n",
      "OUTPUTS:\n",
      "Number of outputs: 5\n",
      "Output: 10179399:OP_DUP OP_HASH160 7f999de28cd92544fc1e4fdec91862f6ce02c566 OP_EQUALVERIFY OP_CHECKSIG \n",
      "Output: 3014900000:OP_DUP OP_HASH160 f31a0ed17b6f44a336f6e912caf20316b5ca4c3e OP_EQUALVERIFY OP_CHECKSIG \n",
      "Output: 45447700:OP_DUP OP_HASH160 3aced9de1ae7e7625497cb1a547e1207ed770786 OP_EQUALVERIFY OP_CHECKSIG \n",
      "Output: 100100000:OP_DUP OP_HASH160 d08930f1de0e5ba8c699262e1e5f0b8764dbcf97 OP_EQUALVERIFY OP_CHECKSIG \n",
      "Output: 1000001:OP_DUP OP_HASH160 fdfedaa843e6998309a10878f192c214eb9aa7d4 OP_EQUALVERIFY OP_CHECKSIG \n",
      "Output Total: 31.716271\n",
      "\n",
      "====================\n",
      "FEE:\n",
      "Fee: 450000 satoshis or 0.0045 bitcoin or $28.80\n",
      "\n",
      "====================\n",
      "LOCKTIME:\n",
      "Locktime: 0\n"
     ]
    }
   ],
   "source": [
    "# Exercise 5.1\n",
    "from io import BytesIO\n",
    "from tx import Tx\n",
    "import helper\n",
    "\n",
    "hex_tx = '010000000456919960ac691763688d3d3bcea9ad6ecaf875df5339e148a1fc61c6ed7a069e010000006a47304402204585bcdef85e6b1c6af5c2669d4830ff86e42dd205c0e089bc2a821657e951c002201024a10366077f87d6bce1f7100ad8cfa8a064b39d4e8fe4ea13a7b71aa8180f012102f0da57e85eec2934a82a585ea337ce2f4998b50ae699dd79f5880e253dafafb7feffffffeb8f51f4038dc17e6313cf831d4f02281c2a468bde0fafd37f1bf882729e7fd3000000006a47304402207899531a52d59a6de200179928ca900254a36b8dff8bb75f5f5d71b1cdc26125022008b422690b8461cb52c3cc30330b23d574351872b7c361e9aae3649071c1a7160121035d5c93d9ac96881f19ba1f686f15f009ded7c62efe85a872e6a19b43c15a2937feffffff567bf40595119d1bb8a3037c356efd56170b64cbcc160fb028fa10704b45d775000000006a47304402204c7c7818424c7f7911da6cddc59655a70af1cb5eaf17c69dadbfc74ffa0b662f02207599e08bc8023693ad4e9527dc42c34210f7a7d1d1ddfc8492b654a11e7620a0012102158b46fbdff65d0172b7989aec8850aa0dae49abfb84c81ae6e5b251a58ace5cfeffffffd63a5e6c16e620f86f375925b21cabaf736c779f88fd04dcad51d26690f7f345010000006a47304402200633ea0d3314bea0d95b3cd8dadb2ef79ea8331ffe1e61f762c0f6daea0fabde022029f23b3e9c30f080446150b23852028751635dcee2be669c2a1686a4b5edf304012103ffd6f4a67e94aba353a00882e563ff2722eb4cff0ad6006e86ee20dfe7520d55feffffff0251430f00000000001976a914ab0c0b2e98b1ab6dbf67d4750b0a56244948a87988ac005a6202000000001976a9143c82d7df364eb6c75be8c80df2b3eda8db57397088ac46430600'\n",
    "hex_tx2 = '01000000071f2c6d65d8691d13262bc5cb9535383191ae3505357b3391b67db0cbfdb6d89e000000008b483045022100909846abcadbdb4703bb79c9ddd7730aa41ec00ce41893d8b5cb83c75757879402201f782395220abd8f01b4bd31de1e7593678f529f4785d5a8677d24a08a40e4610141042c1f4e929749dc12dd628c52a96212a9bd6a67cb48df4a87878f2b0ded523dbc9c0ff46b9548de1142acfbb7679a98968e2046cd75a53235b0e55ac6bda58227ffffffff072f45259bf87002df465f7e6d409317afb682219ef80fdc57f1ec4466b2d592270000006a47304402203d959c1fd8538da563df24daeb9b3c02d4ab142b8e2b279290996f55ddfe7e0c022075b4193f64033e20f474e3aea2087fba438edc99adad73ad91793feccc4cc3530121033d9c3a1dab880c58de0d4954703fa79d7249e4d1dc7df2bf0e61eb968f364c3cffffffffefd10ebf791b5f7a397cc6c62a0040be8d7643c52ecdf383bf6b13208b086986010000008b48304502201d0b090fad7c0b8111551606a3ab514eaf66813c6d4e259eaf496a9b92c51ed9022100f1aec4e9276a2d71075e7608fe4f12f853c921da26f0df2b6b09b6cdc43cc4b10141046248d22bdeb602b158dc4515fbea5c57bfacf0dae85ce9a92ac7d5ab48bf5b73c690a16def57a12a82567d4ae72dbf104446d127fcc601fba491f1489a878f16ffffffffd7cd1a1afe400baf5b78d55a9c17f4eba6b9e203c770b7f1d3ec92a1a888f04d020000008b483045022100be0c83343b4cdb06f340946df56b0b381d363f3b79b83dc96df6090c2feb2a5b0220345d106e5c1da0c7ea88f61943b0376b07bebbd5f04494e01f8bf5446554d45e014104c1e06f1f6ea70a5904fa1b44b393d1a206d626e1139f1fe8d9b5746508b939e1c274a0e5c4a78809b641c213365d986445302b5e2adf560a14942babde994b16ffffffff63a788ca7b7add615eca2bfc5263ba418da60f3e9deb1f51b20b345664a20a29000000008b483045022100a61bd4ef103aa0c66f3011bb198245595ccd444622bc028f2ce17b8b073791dc02202cc567913bb40549ec75725340a265331205f62c004733b5a9dcfc1fbb2f78b00141047160be1b14e8ae111fee70160e0aeab9d86d9a6710de8c322fce979858b3aca54b58762d6d3858a41a75fb8452d7c74b4bd5c63aa9c27de2fd4dd111b3a827b0ffffffff229d3ed969b9f043072fd4c923829c4bd9307a21574a2de20273b54b42fb5b12000000008b48304502207d43de61f4fbd2ea27e41d6168358139244815000c78725f6df02ed6c023eae10221008d982f2c891504b35cde8e680c23f543377cbb28fe1a4715868b93c97b68602f014104f29022ee14c1e5145bbb8c2d4ac897a46754ee48633755fa8bf0d9ca3b80328d14dc3ed17c5e46ac43672c00db05276371fee9ccc583a1a4e0bfc7ebd5c049a2ffffffff67a406c1ccb041d773abc6eb02cbd4d993d574d2fe5528722ea2294a9b9907ac010000008b483045022052bb91fd2d2c0f1f30e25cebc40c300a8d4a38570262ac5bbd306f2658425204022100bbd443832ed30311d2fec0097934fe7294cf5e3a3760b6cf4fdc48c2166fd43001410403e091432387a129dafdc4d4f098f5ecea3d0461997f7ed64562efdeffe4c571c3e021260c17c7ef2025bfcc7197f9e6d02c3fb0a555bb7e9ee4ace5dfd7b745ffffffff0547539b00000000001976a9147f999de28cd92544fc1e4fdec91862f6ce02c56688ac20b9b3b3000000001976a914f31a0ed17b6f44a336f6e912caf20316b5ca4c3e88ac147ab502000000001976a9143aced9de1ae7e7625497cb1a547e1207ed77078688aca067f705000000001976a914d08930f1de0e5ba8c699262e1e5f0b8764dbcf9788ac41420f00000000001976a914fdfedaa843e6998309a10878f192c214eb9aa7d488ac00000000'\n",
    "# bytes.fromhex the tx, make stream\n",
    "stream = BytesIO(bytes.fromhex(hex_tx2))\n",
    "# parse the tx\n",
    "t = Tx.parse(stream)\n",
    "# initialize input sum\n",
    "\n",
    "input_sum = 0\n",
    "# iterate over all inputs (t.tx_ins)\n",
    "for tx_in in t.tx_ins:\n",
    "    # get the values from the TxIn.value method you wrote in 4.2\n",
    "    value = tx_in.value()\n",
    "    print(tx_in.value())\n",
    "    # add to input sum\n",
    "    input_sum += value\n",
    "# initialize output sum\n",
    "output_sum = 0\n",
    "# iterate over all outputs (t.tx_outs)\n",
    "for tx_out in t.tx_outs:\n",
    "    # get the amounts from the TxOut.amount property\n",
    "    value = tx_out.amount\n",
    "    # add to output sum\n",
    "    output_sum += value\n",
    "# fee is input sum - output sum\n",
    "fee = input_sum - output_sum\n",
    "print(fee)\n",
    "\n",
    "# messing around for understanding below\n",
    "\n",
    "\n",
    "#separator for formating\n",
    "def separator(title):\n",
    "    print()\n",
    "    print('====================')\n",
    "    print(title)\n",
    "\n",
    "bitcoin_price = float(input(\"What is the bitcoin price? \"))\n",
    "\n",
    "#satoshis in in bitcoin\n",
    "whole = 100000000\n",
    "# print version\n",
    "version = t.version\n",
    "separator('VERSION:')\n",
    "print('Version number: ' + str(version))\n",
    "\n",
    "separator('INPUTS:')\n",
    "#print inputs\n",
    "print('Number of inputs: ' + str(len(t.tx_ins)))\n",
    "\n",
    "input_total = 0\n",
    "for tx_ins in t.tx_ins:\n",
    "    print('Inputs: ' + str(tx_ins))\n",
    "    print('Value: ' + str(tx_ins.value()/whole))\n",
    "    input_total += tx_ins.value()\n",
    "print('Input Total: ' + str(input_total/whole))\n",
    "\n",
    "separator('OUTPUTS:')\n",
    "print('Number of outputs: ' + str(len(t.tx_outs)))\n",
    "#print outputs\n",
    "output_total = 0\n",
    "for txo in t.tx_outs:\n",
    "    print('Output: ' + str(txo))\n",
    "    output_total += txo.amount\n",
    "print('Output Total: ' + str(output_total/whole))\n",
    "\n",
    "separator('FEE:')\n",
    "#print fee\n",
    "fee = (input_total - output_total)\n",
    "print('Fee: ' + str(fee) + ' satoshis or ' + str(fee/whole) + ' bitcoin' + ' or $' + \"%0.2f\" % (fee/whole*bitcoin_price) )\n",
    "\n",
    "separator('LOCKTIME:')\n",
    "locktime = t.locktime\n",
    "print('Locktime: ' + str(locktime))\n",
    "    "
   ]
  },
  {
   "cell_type": "markdown",
   "metadata": {},
   "source": [
    "### Test Driven Example"
   ]
  },
  {
   "cell_type": "code",
   "execution_count": 2,
   "metadata": {},
   "outputs": [],
   "source": [
    "from tx import Tx\n",
    "\n",
    "class Tx(Tx):\n",
    "\n",
    "    def fee(self):\n",
    "        '''Returns the fee of this transaction in satoshi'''\n",
    "        # initialize input sum and output sum\n",
    "        input_sum, output_sum = 0, 0\n",
    "        # iterate through inputs\n",
    "        for tx_in in self.tx_ins:\n",
    "            # for each input get the value and add to input sum\n",
    "            input_sum += tx_in.value()\n",
    "        # iterate through outputs\n",
    "        for tx_out in self.tx_outs:\n",
    "            # for each output get the amount and add to output sum\n",
    "            output_sum += tx_out.amount\n",
    "        # return input sum - output sum\n",
    "        return input_sum - output_sum"
   ]
  },
  {
   "cell_type": "code",
   "execution_count": null,
   "metadata": {},
   "outputs": [],
   "source": []
  }
 ],
 "metadata": {
  "kernelspec": {
   "display_name": "Python 3",
   "language": "python",
   "name": "python3"
  },
  "language_info": {
   "codemirror_mode": {
    "name": "ipython",
    "version": 3
   },
   "file_extension": ".py",
   "mimetype": "text/x-python",
   "name": "python",
   "nbconvert_exporter": "python",
   "pygments_lexer": "ipython3",
   "version": "3.6.4"
  }
 },
 "nbformat": 4,
 "nbformat_minor": 2
}
